{
  "_format": "hh-sol-artifact-1",
  "contractName": "NFTx",
  "sourceName": "contracts/NFTx.sol",
  "abi": [
    {
      "inputs": [],
      "stateMutability": "nonpayable",
      "type": "constructor"
    },
    {
      "anonymous": false,
      "inputs": [
        {
          "indexed": true,
          "internalType": "address",
          "name": "owner",
          "type": "address"
        },
        {
          "indexed": true,
          "internalType": "address",
          "name": "approved",
          "type": "address"
        },
        {
          "indexed": true,
          "internalType": "uint256",
          "name": "tokenId",
          "type": "uint256"
        }
      ],
      "name": "Approval",
      "type": "event"
    },
    {
      "anonymous": false,
      "inputs": [
        {
          "indexed": true,
          "internalType": "address",
          "name": "owner",
          "type": "address"
        },
        {
          "indexed": true,
          "internalType": "address",
          "name": "operator",
          "type": "address"
        },
        {
          "indexed": false,
          "internalType": "bool",
          "name": "approved",
          "type": "bool"
        }
      ],
      "name": "ApprovalForAll",
      "type": "event"
    },
    {
      "anonymous": false,
      "inputs": [
        {
          "indexed": true,
          "internalType": "address",
          "name": "previousOwner",
          "type": "address"
        },
        {
          "indexed": true,
          "internalType": "address",
          "name": "newOwner",
          "type": "address"
        }
      ],
      "name": "OwnershipTransferred",
      "type": "event"
    },
    {
      "anonymous": false,
      "inputs": [
        {
          "indexed": true,
          "internalType": "address",
          "name": "from",
          "type": "address"
        },
        {
          "indexed": true,
          "internalType": "address",
          "name": "to",
          "type": "address"
        },
        {
          "indexed": true,
          "internalType": "uint256",
          "name": "tokenId",
          "type": "uint256"
        }
      ],
      "name": "Transfer",
      "type": "event"
    },
    {
      "inputs": [
        {
          "internalType": "address",
          "name": "to",
          "type": "address"
        },
        {
          "internalType": "uint256",
          "name": "tokenId",
          "type": "uint256"
        }
      ],
      "name": "approve",
      "outputs": [],
      "stateMutability": "nonpayable",
      "type": "function"
    },
    {
      "inputs": [],
      "name": "availableTickets",
      "outputs": [
        {
          "internalType": "uint256",
          "name": "",
          "type": "uint256"
        }
      ],
      "stateMutability": "view",
      "type": "function"
    },
    {
      "inputs": [
        {
          "internalType": "address",
          "name": "owner",
          "type": "address"
        }
      ],
      "name": "balanceOf",
      "outputs": [
        {
          "internalType": "uint256",
          "name": "",
          "type": "uint256"
        }
      ],
      "stateMutability": "view",
      "type": "function"
    },
    {
      "inputs": [
        {
          "internalType": "address",
          "name": "user",
          "type": "address"
        }
      ],
      "name": "checkIn",
      "outputs": [],
      "stateMutability": "nonpayable",
      "type": "function"
    },
    {
      "inputs": [
        {
          "internalType": "address",
          "name": "",
          "type": "address"
        }
      ],
      "name": "checkIns",
      "outputs": [
        {
          "internalType": "bool",
          "name": "",
          "type": "bool"
        }
      ],
      "stateMutability": "view",
      "type": "function"
    },
    {
      "inputs": [],
      "name": "closeSale",
      "outputs": [],
      "stateMutability": "nonpayable",
      "type": "function"
    },
    {
      "inputs": [
        {
          "internalType": "address",
          "name": "addy",
          "type": "address"
        }
      ],
      "name": "confirmOwnership",
      "outputs": [
        {
          "internalType": "bool",
          "name": "",
          "type": "bool"
        }
      ],
      "stateMutability": "view",
      "type": "function"
    },
    {
      "inputs": [],
      "name": "displayAvailableTickets",
      "outputs": [
        {
          "internalType": "uint256",
          "name": "",
          "type": "uint256"
        }
      ],
      "stateMutability": "view",
      "type": "function"
    },
    {
      "inputs": [],
      "name": "displayTotalTickets",
      "outputs": [
        {
          "internalType": "uint256",
          "name": "",
          "type": "uint256"
        }
      ],
      "stateMutability": "view",
      "type": "function"
    },
    {
      "inputs": [
        {
          "internalType": "uint256",
          "name": "tokenId",
          "type": "uint256"
        }
      ],
      "name": "getApproved",
      "outputs": [
        {
          "internalType": "address",
          "name": "",
          "type": "address"
        }
      ],
      "stateMutability": "view",
      "type": "function"
    },
    {
      "inputs": [
        {
          "internalType": "address",
          "name": "",
          "type": "address"
        },
        {
          "internalType": "uint256",
          "name": "",
          "type": "uint256"
        }
      ],
      "name": "holderTokenIDs",
      "outputs": [
        {
          "internalType": "uint256",
          "name": "",
          "type": "uint256"
        }
      ],
      "stateMutability": "view",
      "type": "function"
    },
    {
      "inputs": [
        {
          "internalType": "address",
          "name": "owner",
          "type": "address"
        },
        {
          "internalType": "address",
          "name": "operator",
          "type": "address"
        }
      ],
      "name": "isApprovedForAll",
      "outputs": [
        {
          "internalType": "bool",
          "name": "",
          "type": "bool"
        }
      ],
      "stateMutability": "view",
      "type": "function"
    },
    {
      "inputs": [],
      "name": "mint",
      "outputs": [],
      "stateMutability": "payable",
      "type": "function"
    },
    {
      "inputs": [],
      "name": "mintPrice",
      "outputs": [
        {
          "internalType": "uint256",
          "name": "",
          "type": "uint256"
        }
      ],
      "stateMutability": "view",
      "type": "function"
    },
    {
      "inputs": [],
      "name": "name",
      "outputs": [
        {
          "internalType": "string",
          "name": "",
          "type": "string"
        }
      ],
      "stateMutability": "view",
      "type": "function"
    },
    {
      "inputs": [],
      "name": "openSale",
      "outputs": [],
      "stateMutability": "nonpayable",
      "type": "function"
    },
    {
      "inputs": [],
      "name": "owner",
      "outputs": [
        {
          "internalType": "address",
          "name": "",
          "type": "address"
        }
      ],
      "stateMutability": "view",
      "type": "function"
    },
    {
      "inputs": [
        {
          "internalType": "uint256",
          "name": "tokenId",
          "type": "uint256"
        }
      ],
      "name": "ownerOf",
      "outputs": [
        {
          "internalType": "address",
          "name": "",
          "type": "address"
        }
      ],
      "stateMutability": "view",
      "type": "function"
    },
    {
      "inputs": [],
      "name": "renounceOwnership",
      "outputs": [],
      "stateMutability": "nonpayable",
      "type": "function"
    },
    {
      "inputs": [
        {
          "internalType": "address",
          "name": "from",
          "type": "address"
        },
        {
          "internalType": "address",
          "name": "to",
          "type": "address"
        },
        {
          "internalType": "uint256",
          "name": "tokenId",
          "type": "uint256"
        }
      ],
      "name": "safeTransferFrom",
      "outputs": [],
      "stateMutability": "nonpayable",
      "type": "function"
    },
    {
      "inputs": [
        {
          "internalType": "address",
          "name": "from",
          "type": "address"
        },
        {
          "internalType": "address",
          "name": "to",
          "type": "address"
        },
        {
          "internalType": "uint256",
          "name": "tokenId",
          "type": "uint256"
        },
        {
          "internalType": "bytes",
          "name": "_data",
          "type": "bytes"
        }
      ],
      "name": "safeTransferFrom",
      "outputs": [],
      "stateMutability": "nonpayable",
      "type": "function"
    },
    {
      "inputs": [],
      "name": "saleIsActive",
      "outputs": [
        {
          "internalType": "bool",
          "name": "",
          "type": "bool"
        }
      ],
      "stateMutability": "view",
      "type": "function"
    },
    {
      "inputs": [
        {
          "internalType": "address",
          "name": "operator",
          "type": "address"
        },
        {
          "internalType": "bool",
          "name": "approved",
          "type": "bool"
        }
      ],
      "name": "setApprovalForAll",
      "outputs": [],
      "stateMutability": "nonpayable",
      "type": "function"
    },
    {
      "inputs": [
        {
          "internalType": "bytes4",
          "name": "interfaceId",
          "type": "bytes4"
        }
      ],
      "name": "supportsInterface",
      "outputs": [
        {
          "internalType": "bool",
          "name": "",
          "type": "bool"
        }
      ],
      "stateMutability": "view",
      "type": "function"
    },
    {
      "inputs": [],
      "name": "symbol",
      "outputs": [
        {
          "internalType": "string",
          "name": "",
          "type": "string"
        }
      ],
      "stateMutability": "view",
      "type": "function"
    },
    {
      "inputs": [
        {
          "internalType": "uint256",
          "name": "tokenId",
          "type": "uint256"
        }
      ],
      "name": "tokenURI",
      "outputs": [
        {
          "internalType": "string",
          "name": "",
          "type": "string"
        }
      ],
      "stateMutability": "view",
      "type": "function"
    },
    {
      "inputs": [],
      "name": "totalTickets",
      "outputs": [
        {
          "internalType": "uint256",
          "name": "",
          "type": "uint256"
        }
      ],
      "stateMutability": "view",
      "type": "function"
    },
    {
      "inputs": [
        {
          "internalType": "address",
          "name": "from",
          "type": "address"
        },
        {
          "internalType": "address",
          "name": "to",
          "type": "address"
        },
        {
          "internalType": "uint256",
          "name": "tokenId",
          "type": "uint256"
        }
      ],
      "name": "transferFrom",
      "outputs": [],
      "stateMutability": "nonpayable",
      "type": "function"
    },
    {
      "inputs": [
        {
          "internalType": "address",
          "name": "newOwner",
          "type": "address"
        }
      ],
      "name": "transferOwnership",
      "outputs": [],
      "stateMutability": "nonpayable",
      "type": "function"
    }
  ],
  "bytecode": "0x60806040526009805460ff19169055600a808055600b5567016345785d8a0000600c553480156200002f57600080fd5b5060408051808201825260048082526309c8ca8f60e31b6020808401828152855180870190965292855284015281519192916200006f916000916200011e565b508051620000859060019060208401906200011e565b505050620000a26200009c620000bf60201b60201c565b620000c3565b620000b960086200011560201b62000ef31760201c565b62000201565b3390565b600780546001600160a01b038381166001600160a01b0319831681179093556040519116919082907f8be0079c531659141344cd1fd0a4f28419497f9722a3daafe3b4186f6b6457e090600090a35050565b80546001019055565b8280546200012c90620001c4565b90600052602060002090601f0160209004810192826200015057600085556200019b565b82601f106200016b57805160ff19168380011785556200019b565b828001600101855582156200019b579182015b828111156200019b5782518255916020019190600101906200017e565b50620001a9929150620001ad565b5090565b5b80821115620001a95760008155600101620001ae565b600181811c90821680620001d957607f821691505b60208210811415620001fb57634e487b7160e01b600052602260045260246000fd5b50919050565b61231d80620002116000396000f3fe6080604052600436106101c25760003560e01c806380f2abe3116100f7578063c87b56dd11610095578063e985e9c511610064578063e985e9c5146104df578063eb8d244414610528578063ee55efee14610542578063f2fde38b1461055757600080fd5b8063c87b56dd14610474578063d9a59e3314610494578063dd11247e146104b4578063e4aee076146104ca57600080fd5b806395d89b41116100d157806395d89b411461040a578063a180959d1461041f578063a22cb46514610434578063b88d4fde1461045457600080fd5b806380f2abe31461039457806382ac0bb8146103cc5780638da5cb5b146103ec57600080fd5b806323b872dd116101645780636352211e1161013e5780636352211e146103295780636817c76c1461034957806370a082311461035f578063715018a61461037f57600080fd5b806323b872dd146102c55780633cfa7e01146102e557806342842e0e1461030957600080fd5b8063095ea7b3116101a0578063095ea7b3146102565780631249c58b14610278578063167ff46f146102805780631acc9b621461029557600080fd5b806301ffc9a7146101c757806306fdde03146101fc578063081812fc1461021e575b600080fd5b3480156101d357600080fd5b506101e76101e2366004611cb3565b610577565b60405190151581526020015b60405180910390f35b34801561020857600080fd5b506102116105c9565b6040516101f3919061206c565b34801561022a57600080fd5b5061023e610239366004611ceb565b61065b565b6040516001600160a01b0390911681526020016101f3565b34801561026257600080fd5b50610276610271366004611c8a565b6106e8565b005b6102766107fe565b34801561028c57600080fd5b506102766109c5565b3480156102a157600080fd5b506101e76102b0366004611af4565b600e6020526000908152604090205460ff1681565b3480156102d157600080fd5b506102766102e0366004611b40565b6109fe565b3480156102f157600080fd5b506102fb600b5481565b6040519081526020016101f3565b34801561031557600080fd5b50610276610324366004611b40565b610a2f565b34801561033557600080fd5b5061023e610344366004611ceb565b610a4a565b34801561035557600080fd5b506102fb600c5481565b34801561036b57600080fd5b506102fb61037a366004611af4565b610ac1565b34801561038b57600080fd5b50610276610b48565b3480156103a057600080fd5b506101e76103af366004611af4565b6001600160a01b03166000908152600d6020526040902054151590565b3480156103d857600080fd5b506102fb6103e7366004611c8a565b610b7e565b3480156103f857600080fd5b506007546001600160a01b031661023e565b34801561041657600080fd5b50610211610baf565b34801561042b57600080fd5b50600b546102fb565b34801561044057600080fd5b5061027661044f366004611c50565b610bbe565b34801561046057600080fd5b5061027661046f366004611b7b565b610bcd565b34801561048057600080fd5b5061021161048f366004611ceb565b610c05565b3480156104a057600080fd5b506102766104af366004611af4565b610d7c565b3480156104c057600080fd5b506102fb600a5481565b3480156104d657600080fd5b50600a546102fb565b3480156104eb57600080fd5b506101e76104fa366004611b0e565b6001600160a01b03918216600090815260056020908152604080832093909416825291909152205460ff1690565b34801561053457600080fd5b506009546101e79060ff1681565b34801561054e57600080fd5b50610276610e22565b34801561056357600080fd5b50610276610572366004611af4565b610e58565b60006001600160e01b031982166380ac58cd60e01b14806105a857506001600160e01b03198216635b5e139f60e01b145b806105c357506301ffc9a760e01b6001600160e01b03198316145b92915050565b6060600080546105d8906121e5565b80601f0160208091040260200160405190810160405280929190818152602001828054610604906121e5565b80156106515780601f1061062657610100808354040283529160200191610651565b820191906000526020600020905b81548152906001019060200180831161063457829003601f168201915b5050505050905090565b600061066682610efc565b6106cc5760405162461bcd60e51b815260206004820152602c60248201527f4552433732313a20617070726f76656420717565727920666f72206e6f6e657860448201526b34b9ba32b73a103a37b5b2b760a11b60648201526084015b60405180910390fd5b506000908152600460205260409020546001600160a01b031690565b60006106f382610a4a565b9050806001600160a01b0316836001600160a01b031614156107615760405162461bcd60e51b815260206004820152602160248201527f4552433732313a20617070726f76616c20746f2063757272656e74206f776e656044820152603960f91b60648201526084016106c3565b336001600160a01b038216148061077d575061077d81336104fa565b6107ef5760405162461bcd60e51b815260206004820152603860248201527f4552433732313a20617070726f76652063616c6c6572206973206e6f74206f7760448201527f6e6572206e6f7220617070726f76656420666f7220616c6c000000000000000060648201526084016106c3565b6107f98383610f19565b505050565b6000600b54116108505760405162461bcd60e51b815260206004820152601960248201527f5469636b65747320617265206e6f7420617661696c61626c650000000000000060448201526064016106c3565b600c543410156108945760405162461bcd60e51b815260206004820152600f60248201526e4e6f7420656e6f756768204554482160881b60448201526064016106c3565b60095460ff166108e65760405162461bcd60e51b815260206004820152601860248201527f5469636b65747320617265206e6f74206f6e2073616c6521000000000000000060448201526064016106c3565b60006109206108fc6108f760085490565b610f87565b60405160200161090c9190611da4565b6040516020818303038152906040526110a1565b90506000816040516020016109359190611ec7565b60405160208183030381529060405290506109583361095360085490565b611215565b6109618161122f565b61097361096d60085490565b82611272565b336000908152600d60205260409020600854815460018101835560009283526020909220909101556109a9600880546001019055565b6001600b60008282546109bc91906121a2565b90915550505050565b6007546001600160a01b031633146109ef5760405162461bcd60e51b81526004016106c3906120d1565b6009805460ff19166001179055565b610a0833826112fd565b610a245760405162461bcd60e51b81526004016106c390612106565b6107f98383836113e3565b6107f983838360405180602001604052806000815250610bcd565b6000818152600260205260408120546001600160a01b0316806105c35760405162461bcd60e51b815260206004820152602960248201527f4552433732313a206f776e657220717565727920666f72206e6f6e657869737460448201526832b73a103a37b5b2b760b91b60648201526084016106c3565b60006001600160a01b038216610b2c5760405162461bcd60e51b815260206004820152602a60248201527f4552433732313a2062616c616e636520717565727920666f7220746865207a65604482015269726f206164647265737360b01b60648201526084016106c3565b506001600160a01b031660009081526003602052604090205490565b6007546001600160a01b03163314610b725760405162461bcd60e51b81526004016106c3906120d1565b610b7c600061157f565b565b600d6020528160005260406000208181548110610b9a57600080fd5b90600052602060002001600091509150505481565b6060600180546105d8906121e5565b610bc93383836115d1565b5050565b610bd733836112fd565b610bf35760405162461bcd60e51b81526004016106c390612106565b610bff848484846116a0565b50505050565b6060610c1082610efc565b610c765760405162461bcd60e51b815260206004820152603160248201527f45524337323155524953746f726167653a2055524920717565727920666f72206044820152703737b732bc34b9ba32b73a103a37b5b2b760791b60648201526084016106c3565b60008281526006602052604081208054610c8f906121e5565b80601f0160208091040260200160405190810160405280929190818152602001828054610cbb906121e5565b8015610d085780601f10610cdd57610100808354040283529160200191610d08565b820191906000526020600020905b815481529060010190602001808311610ceb57829003601f168201915b505050505090506000610d2660408051602081019091526000815290565b9050805160001415610d39575092915050565b815115610d6b578082604051602001610d53929190611d75565b60405160208183030381529060405292505050919050565b610d74846116d3565b949350505050565b6001600160a01b0381166000908152600e60209081526040808320805460ff19166001179055600d909152812080548290610dc757634e487b7160e01b600052603260045260246000fd5b906000526020600020015490506000610df2610de283610f87565b60405160200161090c9190611f0c565b9050600081604051602001610e079190611ec7565b6040516020818303038152906040529050610bff8382611272565b6007546001600160a01b03163314610e4c5760405162461bcd60e51b81526004016106c3906120d1565b6009805460ff19169055565b6007546001600160a01b03163314610e825760405162461bcd60e51b81526004016106c3906120d1565b6001600160a01b038116610ee75760405162461bcd60e51b815260206004820152602660248201527f4f776e61626c653a206e6577206f776e657220697320746865207a65726f206160448201526564647265737360d01b60648201526084016106c3565b610ef08161157f565b50565b80546001019055565b6000908152600260205260409020546001600160a01b0316151590565b600081815260046020526040902080546001600160a01b0319166001600160a01b0384169081179091558190610f4e82610a4a565b6001600160a01b03167f8c5be1e5ebec7d5bd14f71427d1e84f3dd0314c0f7b2291e5b200ac8c7c3b92560405160405180910390a45050565b606081610fab5750506040805180820190915260018152600360fc1b602082015290565b8160005b8115610fd55780610fbf81612220565b9150610fce9050600a8361216f565b9150610faf565b60008167ffffffffffffffff811115610ffe57634e487b7160e01b600052604160045260246000fd5b6040519080825280601f01601f191660200182016040528015611028576020820181803683370190505b5090505b8415610d745761103d6001836121a2565b915061104a600a8661223b565b611055906030612157565b60f81b81838151811061107857634e487b7160e01b600052603260045260246000fd5b60200101906001600160f81b031916908160001a90535061109a600a8661216f565b945061102c565b8051606090806110c1575050604080516020810190915260008152919050565b600060036110d0836002612157565b6110da919061216f565b6110e5906004612183565b905060006110f4826020612157565b67ffffffffffffffff81111561111a57634e487b7160e01b600052604160045260246000fd5b6040519080825280601f01601f191660200182016040528015611144576020820181803683370190505b50905060006040518060600160405280604081526020016122a8604091399050600181016020830160005b868110156111d0576003818a01810151603f601282901c8116860151600c83901c8216870151600684901c831688015192909316870151600891821b60ff94851601821b92841692909201901b91160160e01b83526004909201910161116f565b5060038606600181146111ea57600281146111fb57611207565b613d3d60f01b600119830152611207565b603d60f81b6000198301525b505050918152949350505050565b610bc98282604051806020016040528060008152506117ab565b610ef081604051602401611243919061206c565b60408051601f198184030181529190526020810180516001600160e01b031663104c13eb60e21b1790526117de565b61127b82610efc565b6112de5760405162461bcd60e51b815260206004820152602e60248201527f45524337323155524953746f726167653a2055524920736574206f66206e6f6e60448201526d32bc34b9ba32b73a103a37b5b2b760911b60648201526084016106c3565b600082815260066020908152604090912082516107f992840190611a3f565b600061130882610efc565b6113695760405162461bcd60e51b815260206004820152602c60248201527f4552433732313a206f70657261746f7220717565727920666f72206e6f6e657860448201526b34b9ba32b73a103a37b5b2b760a11b60648201526084016106c3565b600061137483610a4a565b9050806001600160a01b0316846001600160a01b031614806113af5750836001600160a01b03166113a48461065b565b6001600160a01b0316145b80610d7457506001600160a01b0380821660009081526005602090815260408083209388168352929052205460ff16610d74565b826001600160a01b03166113f682610a4a565b6001600160a01b03161461145a5760405162461bcd60e51b815260206004820152602560248201527f4552433732313a207472616e736665722066726f6d20696e636f72726563742060448201526437bbb732b960d91b60648201526084016106c3565b6001600160a01b0382166114bc5760405162461bcd60e51b8152602060048201526024808201527f4552433732313a207472616e7366657220746f20746865207a65726f206164646044820152637265737360e01b60648201526084016106c3565b6114c7600082610f19565b6001600160a01b03831660009081526003602052604081208054600192906114f09084906121a2565b90915550506001600160a01b038216600090815260036020526040812080546001929061151e908490612157565b909155505060008181526002602052604080822080546001600160a01b0319166001600160a01b0386811691821790925591518493918716917fddf252ad1be2c89b69c2b068fc378daa952ba7f163c4a11628f55a4df523b3ef91a4505050565b600780546001600160a01b038381166001600160a01b0319831681179093556040519116919082907f8be0079c531659141344cd1fd0a4f28419497f9722a3daafe3b4186f6b6457e090600090a35050565b816001600160a01b0316836001600160a01b031614156116335760405162461bcd60e51b815260206004820152601960248201527f4552433732313a20617070726f766520746f2063616c6c65720000000000000060448201526064016106c3565b6001600160a01b03838116600081815260056020908152604080832094871680845294825291829020805460ff191686151590811790915591519182527f17307eab39ab6107e8899845ad3d59bd9653f200f220920489ca2b5937696c31910160405180910390a3505050565b6116ab8484846113e3565b6116b7848484846117ff565b610bff5760405162461bcd60e51b81526004016106c39061207f565b60606116de82610efc565b6117425760405162461bcd60e51b815260206004820152602f60248201527f4552433732314d657461646174613a2055524920717565727920666f72206e6f60448201526e3732bc34b9ba32b73a103a37b5b2b760891b60648201526084016106c3565b600061175960408051602081019091526000815290565b9050600081511161177957604051806020016040528060008152506117a4565b8061178384610f87565b604051602001611794929190611d75565b6040516020818303038152906040525b9392505050565b6117b5838361190c565b6117c260008484846117ff565b6107f95760405162461bcd60e51b81526004016106c39061207f565b80516a636f6e736f6c652e6c6f67602083016000808483855afa5050505050565b60006001600160a01b0384163b1561190157604051630a85bd0160e11b81526001600160a01b0385169063150b7a029061184390339089908890889060040161202f565b602060405180830381600087803b15801561185d57600080fd5b505af192505050801561188d575060408051601f3d908101601f1916820190925261188a91810190611ccf565b60015b6118e7573d8080156118bb576040519150601f19603f3d011682016040523d82523d6000602084013e6118c0565b606091505b5080516118df5760405162461bcd60e51b81526004016106c39061207f565b805181602001fd5b6001600160e01b031916630a85bd0160e11b149050610d74565b506001949350505050565b6001600160a01b0382166119625760405162461bcd60e51b815260206004820181905260248201527f4552433732313a206d696e7420746f20746865207a65726f206164647265737360448201526064016106c3565b61196b81610efc565b156119b85760405162461bcd60e51b815260206004820152601c60248201527f4552433732313a20746f6b656e20616c7265616479206d696e7465640000000060448201526064016106c3565b6001600160a01b03821660009081526003602052604081208054600192906119e1908490612157565b909155505060008181526002602052604080822080546001600160a01b0319166001600160a01b03861690811790915590518392907fddf252ad1be2c89b69c2b068fc378daa952ba7f163c4a11628f55a4df523b3ef908290a45050565b828054611a4b906121e5565b90600052602060002090601f016020900481019282611a6d5760008555611ab3565b82601f10611a8657805160ff1916838001178555611ab3565b82800160010185558215611ab3579182015b82811115611ab3578251825591602001919060010190611a98565b50611abf929150611ac3565b5090565b5b80821115611abf5760008155600101611ac4565b80356001600160a01b0381168114611aef57600080fd5b919050565b600060208284031215611b05578081fd5b6117a482611ad8565b60008060408385031215611b20578081fd5b611b2983611ad8565b9150611b3760208401611ad8565b90509250929050565b600080600060608486031215611b54578081fd5b611b5d84611ad8565b9250611b6b60208501611ad8565b9150604084013590509250925092565b60008060008060808587031215611b90578081fd5b611b9985611ad8565b9350611ba760208601611ad8565b925060408501359150606085013567ffffffffffffffff80821115611bca578283fd5b818701915087601f830112611bdd578283fd5b813581811115611bef57611bef61227b565b604051601f8201601f19908116603f01168101908382118183101715611c1757611c1761227b565b816040528281528a6020848701011115611c2f578586fd5b82602086016020830137918201602001949094529598949750929550505050565b60008060408385031215611c62578182fd5b611c6b83611ad8565b915060208301358015158114611c7f578182fd5b809150509250929050565b60008060408385031215611c9c578182fd5b611ca583611ad8565b946020939093013593505050565b600060208284031215611cc4578081fd5b81356117a481612291565b600060208284031215611ce0578081fd5b81516117a481612291565b600060208284031215611cfc578081fd5b5035919050565b60008151808452611d1b8160208601602086016121b9565b601f01601f19169290920160200192915050565b7f222c20226465736372697074696f6e223a202241204e46542d706f77657265648152730103a34b1b5b2ba34b7339039bcb9ba32b69116160651b602082015260340190565b60008351611d878184602088016121b9565b835190830190611d9b8183602088016121b9565b01949350505050565b707b20226e616d65223a20224e465478202360781b81528151600090611dd18160118501602087016121b9565b611ddf601182850101611d2f565b7f22747261697473223a205b7b202274726169745f74797065223a20224368656381527f6b656420496e222c202276616c7565223a202266616c736522207d2c207b202260208201527f74726169745f74797065223a2022507572636861736564222c202276616c756560408201526d0111d10113a393ab291103eae96160951b60608201527f22696d616765223a2022697066733a2f2f516d507755505148464b46765a6a6d606e8201527f79743373616d435154507962326d72366d4e6f754d6338347857647946486a22608e82015261207d60f01b60ae82015260b001949350505050565b7f646174613a6170706c69636174696f6e2f6a736f6e3b6261736536342c000000815260008251611eff81601d8501602087016121b9565b91909101601d0192915050565b717b20226e616d65223a20224e46546978202360701b81528151600090611f3a8160128501602087016121b9565b611f48601282850101611d2f565b7f22747261697473223a205b7b202274726169745f74797065223a20224368656381527f6b656420496e222c202276616c7565223a20227472756522207d2c207b20227460208201527f726169745f74797065223a2022507572636861736564222c202276616c75652260408201526c01d10113a393ab291103eae961609d1b60608201527f22696d616765223a2022697066733a2f2f516d54484e6b423356777541643763606d8201527f4c463176567a756d5831386f7366774c4c48694c6736515333366b6758506322608d82015261207d60f01b60ad82015260af01949350505050565b6001600160a01b038581168252841660208201526040810183905260806060820181905260009061206290830184611d03565b9695505050505050565b6020815260006117a46020830184611d03565b60208082526032908201527f4552433732313a207472616e7366657220746f206e6f6e20455243373231526560408201527131b2b4bb32b91034b6b83632b6b2b73a32b960711b606082015260800190565b6020808252818101527f4f776e61626c653a2063616c6c6572206973206e6f7420746865206f776e6572604082015260600190565b60208082526031908201527f4552433732313a207472616e736665722063616c6c6572206973206e6f74206f6040820152701ddb995c881b9bdc88185c1c1c9bdd9959607a1b606082015260800190565b6000821982111561216a5761216a61224f565b500190565b60008261217e5761217e612265565b500490565b600081600019048311821515161561219d5761219d61224f565b500290565b6000828210156121b4576121b461224f565b500390565b60005b838110156121d45781810151838201526020016121bc565b83811115610bff5750506000910152565b600181811c908216806121f957607f821691505b6020821081141561221a57634e487b7160e01b600052602260045260246000fd5b50919050565b60006000198214156122345761223461224f565b5060010190565b60008261224a5761224a612265565b500690565b634e487b7160e01b600052601160045260246000fd5b634e487b7160e01b600052601260045260246000fd5b634e487b7160e01b600052604160045260246000fd5b6001600160e01b031981168114610ef057600080fdfe4142434445464748494a4b4c4d4e4f505152535455565758595a6162636465666768696a6b6c6d6e6f707172737475767778797a303132333435363738392b2fa2646970667358221220a9ec623a271decf47b40e8edeb09734b04957af165c0b2522dfadb13cedbd9dd64736f6c63430008040033",
  "linkReferences": {},
  "deployedLinkReferences": {}
}